:02000000E729EE
:06000600000000000800EC
:0E000C00213083120313FD00FD0B0A280800AB
:10001A000F3083120313FC004730FD00FD0B132839
:0A002A00FC0B132800000000080082
:1000340083120313F801F9011030FC00710DF80D5F
:10004400F90D7408F8027508031C750FF9020318FA
:1000540032287408F80775080318750FF907031098
:0A006400F00DF10DFC0B2028080040
:10006E0083160313D61B3E28831286114028831253
:10007E0086158316561B46288312061148288312AE
:10008E0006158316D61A4E28831286105028831210
:10009E0086148316561A5628831206105828831271
:1000AE0006146F185C2806165D28061286160320A5
:1000BE0086128316D6196628831286116828831233
:1000CE008615831656196E28831206117028831210
:1000DE0006158316D6187628831286107828831272
:1000EE008614831656187E288312061080288312D3
:1000FE0006146F1884280616852806128616032005
:0E010E0086126F1C8C280D208D2806200800FC
:10011C00831203136F1083165108D60037206F1407
:02012C000800C9
:0E012E008312031364088A006308820008002D
:10013C0083160313D401053054020318AC28540859
:10014C005307840020308000D40AA1285408530798
:10015C0084008001D40354085307D5000A30F400FE
:10016C00F5015108F0005208F1001A207808F0004F
:10017C007908F1003030F0078316550884007008B8
:10018C0080000A30F400F5015108F0005208F1002B
:10019C001A2070088316D1007108D2000030710645
:1001AC00031DDA2800307006031DDD28DF28D40378
:0401BC00B12808005E
:1001C00083160313CD01CE014808CF004908D000A3
:1001D00080304906F00080307002031DF1280030A5
:1001E00048020318FF280130CD000030CE00480837
:1001F000003CCF004908031C013ED001D0024F084B
:10020000D1005008D2004A08D3009E200630CB000F
:100210000030CC004C08003C031D10294B08003C6A
:1002200003182B294B084A07F20001304B02F0005B
:100230000030031C013E4C02F10070084A078400A4
:100240000008F00072088400700880000130CB02C2
:10025000031CCC030A294A088400203080004D0882
:100260004E0403194929CB01CC014B084A078400ED
:100270000008203A031D4029CB0A0319CC0A35296E
:100280000130CB02031CCC034B084A0784002D30FD
:0402900080000800E2
:100294005C29803083160313C8006F29C030C8005E
:1002A4006F299430C8006F29D430C8006F2980307A
:1002B400C8006F29831603134808013A03194B2910
:1002C4004808023A031950294808033A03195329E4
:1002D4004808043A0319562959294903F0004808E3
:1002E400F0077008C8007008D60037206F10831616
:1002F400CB014B084A078400000803198A294B08DC
:100304004A0784000008D1008E208316CB0A7B297B
:0603140083126F140800C3
:10031A0097208A110A128000840AE30A0319E40A60
:08032A00F003031D8D290800FA
:100332008316031386120612061086100611861102
:1003420083128612061286110611861006100D20DF
:100352000D200D20861406148616032086120D2009
:100362008616032086120D208616032086120D2083
:1003720006108616032086120D208616032086128A
:10038200861086158616032086120D208611061405
:1003920086160320861206108616032086120D206A
:1003A20086160320861206148616032086120D2056
:1003B2000610861603208612861506158614061464
:0C03C2008616032086120D206F14080020
:1003CE005E2383160313BE01BF01C001C101C2012A
:1003DE00C301C401C501C601C701013088008312E3
:1003EE0088018316870183128701992101308316B4
:1003FE00D60037200C308316D600372001308316F6
:10040E00C8000130C9002630CA004A2102308316C6
:10041E00C8000130C9003D30CA004A210808003A20
:10042E00031D1A2A152A0808203A031D232A013013
:10043E008316C6000030C700831600304706031D22
:10044E002A2A01304606031D132B0130D600372011
:10045E0001308316C8000130C9003330CA004A216A
:10046E0002308316C8000130C9005230CA004A213A
:10047E000808003A031D442A3F2A01308700023043
:10048E00FB000430FC00BA30FD00FD0B4C2AFC0BC7
:10049E004C2AFB0B4C2A0000870102308316C80041
:1004AE000130C9005C30CA004A210808013A031D18
:1004BE00662A8316BE0A0319BF0AC601C701831234
:1004CE000808023A031D712A8316C00A0319C10ACD
:1004DE00C601C70183120808043A031D7C2A83163D
:1004EE00C20A0319C30AC601C70183120808083AD3
:1004FE00031D872A8316C40A0319C50AC601C7013C
:10050E0083120808103A031D122B01308316D600F1
:10051E00372083163E08C8003F08C900B430CA0011
:10052E00E0204008C8004108C900A030CA00E02001
:10053E004208C8004308C9006530CA00E0204408DC
:10054E00C8004508C900AA30CA00E0200330FB00ED
:10055E008A30FC005530FD00FD0BB32AFC0BB32A8C
:10056E00FB0BB32A000000000130C8000130C900A7
:10057E004F30CA004A2101308316C8000430C9002A
:10058E00B430CA004A2102308316C8000130C900B7
:10059E004C30CA004A2102308316C8000430C9000C
:1005AE006530CA004A210330FB000830FC0077306A
:1005BE00FD00FD0BE02AFC0BE02AFB0BE02A0130CC
:1005CE008316C8000130C9002030CA004A2101300C
:1005DE008316C8000430C900A030CA004A21023078
:1005EE008316C8000130C9002330CA004A210230E8
:1005FE008316C8000430C900AA30CA004A2103304D
:10060E00FB000830FC007730FD00FD0B0C2BFC0BC3
:0C061E000C2BFB0B0C2B232AFC29142BAB
:1006BC0020308400433083120313F0001A30E3001F
:0806CC000330E4008D21080059
:0606340033343A340034B7
:06063A0034343A340034B0
:1006400070347234653473347334203462347534E6
:0A065000743474346F346E340034D7
:10065A0031343A3443343134203432343A34433442
:04066A0032340034F2
:10066E006334613473347434203479346F347534B4
:0E067E007234203476346F34743465340034B2
:06068C0032343A34003460
:0606920031343A3400345B
:1006980033343A3443343334203434343A344334FE
:0406A80034340034B2
:0E06AC0076346F34743469346E34673400343D
:02400E007A3FF7
:00000001FF
